:1000000053C077C0BCC575C047C573C072C071C04E
:1000100070C06FC06EC06DC06CC06BC06AC009029A
:1000200043000201008032090400000102020100C5
:100030000524001001042402020524060001052401
:10004000010301070583030800FF09040100020AF8
:1000500000000007050102080000070581020800F2
:10006000001C03530065006E0073006F00720020D7
:1000700000530065007200690061006C0012037299
:10008000006900640069006D00750069006D00047E
:100090000309041201100102000008D0167E0800B6
:1000A0000101020001002B0711241FBECFE5D2E0A1
:1000B000DEBFCDBF21E0A2E8B0E001C01D92AA37AB
:1000C000B207E1F710E0A0E6B0E0EEEFF7E102C022
:1000D00005900D92A238B107D9F710E0C4E5D0E041
:1000E00003C02197FE0183DBC335D107D1F7BCD60E
:1000F00084CB86CFE091FD00E13150F4EF5FE093D7
:10010000FD00F0E0E250FF4F808381E090E0089531
:1001100090E080E00895E091FC00EF5FE093FC0048
:10012000F0E0E250FF4F80810895CF92DF92EF928E
:10013000FF920F931F93CF93DF936C01EB017B0131
:10014000E40EF51E10E000E0CE15DF0561F06991C8
:10015000D601ED91FC910190F081E02DC601099549
:10016000080F191FF1CFC801DF91CF911F910F9197
:10017000FF90EF90DF90CF9008952FB7F894809183
:10018000DD009091DE002FBF892B39F0E091D50082
:10019000F091D600808190E0089590E080E008958D
:1001A000F894E3EDF0E082E890E09183808393831C
:1001B00082839583848382EA90E09783868380E2BA
:1001C00090E09187808713861286789408951F9314
:1001D000CF93DF93162FEA01288124FF16C02981CF
:1001E00038E823272983212FFC01CE010296DC0168
:1001F00031913D9321501216DCF3612FA9D41C5F7D
:100200001883DF91CF911F9108952AE52883EBCFC2
:10021000CF92DF92EF92FF920F931F93CF93DF93D2
:1002200080915501835087FD64C090915401ECE0AA
:10023000F0E0E91BF109E85AFE4F9091530190312B
:1002400008F011C130E020E0281708F040C09FB747
:10025000F8944091DD005091DE009FBF6091DB007B
:100260007091DC006417750779F1DF01A20FB31FED
:100270009C91A091D300B091D4009C934091D30065
:100280005091D4004F5F5F4F5093D4004093D30000
:100290006091D9007091DA004617570741F44091F8
:1002A000D7005091D8005093D4004093D3009FB70B
:1002B000F8944091DD005091DE004F5F5F4F509306
:1002C000DE004093DD009FBF2F5F3F4FBDCF2FB7B4
:1002D000F8948091DD009091DE002FBF089718F010
:1002E0008FEF8093550180915501181614F41092E8
:1002F00055018091610084FF41C0C0916000CF3FF3
:1003000009F43CC08C2FC93008F088E09C2F981B62
:100310009093600090913B0128E8922790933B01D5
:10032000CC2301F19091E300C7E097FD1BC0209121
:10033000E1003091E20096FF55C1ACE3B1E0F90174
:10034000982F44914D9331969150D9F74FEF480F24
:1003500050E04F5F5F4F240F351F3093E200209332
:10036000E100C82F6C2F8CE391E0F2D3CC5FCC304E
:1003700019F08FEF80936000C093610084E196B321
:10038000987131F48150D9F71092560110925201B0
:10039000D1E08111D0E09091E400D91741F1882398
:1003A00021F1F89408E010E0C0E080E8D82ECD2CD0
:1003B000CC0EC1BED1D37C0184E3E81689E0F806F7
:1003C0000CF4CC2DD6940150110989F78FEF8C0FC6
:1003D00081BF0C2F10E00F5F1F4F81B780171106F0
:1003E00009F00CF408C1C1BF7894D093E4002FB792
:1003F000F8948091FA009091FB002FBF892B09F4AB
:100400000BC1E091EF00E83008F006C181E08E0FEB
:100410008093EF00F0E0A091F200B091F3002D91F5
:10042000B093F300A093F2008091F6009091F70052
:10043000A817B90741F48091F4009091F5009093CA
:10044000F3008093F2003FB7F8948091FA00909106
:10045000FB0001979093FB008093FA003FBFE951A6
:10046000FF4F2083C4CF9D3209F0B5C0883009F01A
:100470003ACF83EC80933B018AE580936100109230
:10048000E3009081892F8076C9F18032A9F58181BE
:1004900020EE280F223048F48FEF97FD868190E8F8
:1004A0009093E300809360001ECF8232F9F4409174
:1004B000DF004F3FA1F028B381E090E0042E01C09F
:1004C000880F0A94EAF78095822322813381217074
:1004D000332701C0220F4A95EAF7822B88BB80910F
:1004E000E500811103C082E08093E500808187FDF3
:1004F00003C081E08093E60080E030C0228110924A
:100500004401918191110AC01092450124E431E027
:1005100082E03093E2002093E10020C0953029F47E
:100520002093560124E431E0F4CF9630D9F593813D
:10053000913041F483E990E09093E2008093E100F0
:1005400082E109C0923099F48EE190E09093E2004C
:100550008093E10083E490E49093E300978191110C
:10056000A1CF9681981708F09DCF892F9BCF93300C
:1005700091F7211108C08FE890E09093E2008093FA
:10058000E10084E0E8CF213019F48DE790E0D4CF8A
:10059000223009F781E690E09093E2008093E10039
:1005A0008CE1D9CF983081F0993019F42093E00094
:1005B000B9CF9A3069F09B3009F0B4CF9BE49093A7
:1005C000470190936F01AECF20EE30E081E0A1CFE4
:1005D00024E431E0FBCF8091E30087FF84CE1092CA
:1005E000600081CED901ECE3F1E0982F4D91419369
:1005F0009150E1F7ABCEB0D28453994097FF03C03E
:100600009195819591098E159F0514F4C1B77C01D0
:1006100081B78F5F81BFE1CE8091460184FF0CC01E
:100620008091E600882331F146E451E060E087EEF6
:1006300090E0CDDD1092E6008091E500882389F0FE
:1006400090916E0194FF0DC04EE651E0823019F595
:1006500068E082E690E0BBDD8091E5008150809308
:10066000E500DF91CF911F910F91FF90EF90DF9008
:10067000CF9008956091EF006623F1F246E451E0D7
:1006800087EE90E0A4DD1092550181E08093E600B2
:100690001092EF00D1CF62E08AE690E0DCCFC09804
:1006A000C29AB29BFECF86E18A95F1F7C09A8BE1A0
:1006B0008A95F1F700C09EB1892F807295FD04C024
:1006C00094E090931001089581E00895C29AC29B2E
:1006D000FECF8BE18A95F1F700C0C09886E18A953C
:1006E000F1F7C298C09A779905C083E08093100112
:1006F00080E0089581E008958EB98BE29BE19A95A0
:10070000F1F700C08DB9B29BFECF96E19A95F1F753
:100710008DB9769BF3CF8BE18A95F1F700C08FB14D
:100720009FEF9FB9B89A0895CF92DF92EF92FF9210
:100730000F931F93CF93DF93082F80911001816057
:10074000809310019091FE0090FD03C08260809321
:100750001001BCDF882319F1102FCEEFD0E0DD248B
:10076000DA94CC24C3947E018FEFE81AF80A8091C2
:1007700010018370D1F1C29888818FB980EFBCDFFE
:10078000B8988EEFB9DF9091100180FF15C0892FC6
:10079000817090FF0DC081E08093100180E0DF91B7
:1007A000CF911F910F91FF90EF90DF90CF90089520
:1007B00092E090931001F3CF892F8570843061F41B
:1007C0008091FE0081608093FE00C09210017EDF68
:1007D000811117C09AE0EDCF9E7F90931001E70141
:1007E000115009F0C0CF81E0DACFB89880EF84DFF4
:1007F0008883113021F4DFB88EEF7EDFF0CF1FB891
:10080000FBCF102FCEEFD0E0EBCF1092FC00880F83
:1008100081608093FE001092100181E0860F84DFDA
:10082000882319F03CDF811103C0809110010895E5
:1008300080E008958091FD00109210018F5F74DFB9
:100840001092FD00882319F02ADF811103C08091E6
:100850001001089580E00895CF93DF93C5E1D1E0C2
:1008600098811092FD00990F9093FE0043DCE2DF27
:1008700062E08881CADF4FDCC82F4DDC9C2F9827AF
:1008800089279827DF91CF910895CF92DF92EF9239
:10089000FF92CF93DF93C5E1D1E098811092FD00E4
:1008A000990F9093FE0026DCC5DF63E08881ADDF01
:1008B00032DC90E0B0E0A0E0CC24D82EE92EFA2E75
:1008C0002ADCC82AFE2CED2CDC2CCC2424DC96015E
:1008D000282BC701B901DF91CF91FF90EF90DF90F6
:1008E000CF9008952FB7F8948091DD009091DE00AD
:1008F0002FBF892B51F48CE190E10197F1F700C0F3
:10090000000086DC90E080E008958CE190E10197A2
:10091000F1F700C000007CDCE091D500F091D6003A
:100920008191F093D600E093D5002091D9003091C9
:10093000DA00E217F30741F42091D7003091D80094
:100940003093D6002093D5009FB7F8942091DD0016
:100950003091DE00215031093093DE002093DD001C
:100960009FBF90E008958CE190E10197F1F700C0FE
:1009700000004EDC2FB7F8948091DD009091DE00EE
:100980002FBF08958F929F92AF92BF92CF92DF9226
:10099000EF92FF926A017B012FB7F8948091CF000C
:1009A0009091D000A091D100B091D2002FBF2FB76D
:1009B000F8948090CF009090D000A090D100B0909B
:1009C000D2002FBFC818D908EA08FB08C80ED91EE4
:1009D000EA1EFB1E8CE190E10197F1F700C00000D8
:1009E00017DCD501C4011C141D041E041F04FCF2F5
:1009F000FF90EF90DF90CF90BF90AF909F908F903F
:100A000008954FB7F8942091FA003091FB004FBF42
:100A10004091F8005091F9004217530751F48CE1CE
:100A200090E10197F1F700C00000F2DB90E080E078
:100A30000895E091F000F091F10060832091F000C2
:100A40003091F1002F5F3F4F3093F1002093F00081
:100A50004091F6005091F7002417350741F420919A
:100A6000F4003091F5003093F1002093F0004FB77F
:100A7000F8942091FA003091FB002F5F3F4F3093A4
:100A8000FB002093FA004FBF45E050E060E070E0CB
:100A900079DF81E090E0089578941F920F920FB66D
:100AA0000F9211242F933F938F939F93AF93BF93F4
:100AB0008091CF009091D000A091D100B091D20050
:100AC0003091CE002CE7230F2D3728F02FEF230F86
:100AD0000196A11DB11D2093CE008093CF0090936D
:100AE000D000A093D100B093D2008091CA00909121
:100AF000CB00A091CC00B091CD000196A11DB11DFD
:100B00008093CA009093CB00A093CC00B093CD000B
:100B1000BF91AF919F918F913F912F910F900FBEF9
:100B20000F901F901895A82FB92F80E090E041E01A
:100B300050EA609530E009C02D91822797958795FE
:100B400010F084279527305EC8F36F5FA8F30895EF
:100B5000EADF8D939D930895A6E088279927AA95AB
:100B600069F00197E1F3B399FCCFB39BFECF81E02D
:100B70009927A6B3019611F0A871D9F70895CF93DC
:100B8000CFB7CF93C395B39BE9F7B39B0BC0B39B90
:100B900009C0B39B07C0B39B05C0B39B03C0B39B05
:100BA00001C0D8C00F92DF93C0915401DD27C85A0D
:100BB000DE4F012EB39B03C0DF910F90E6CF2F9342
:100BC0000F931F934F932FEF4F6F06B303FB20F943
:100BD0005F933F9350E03BE065C016B30126502978
:100BE00053FDC89556B3012703FB25F92F7306B3B0
:100BF000B1F05027102713FB26F906B22230F0F08F
:100C000000C016B3012703FB27F90126502906B2BD
:100C10002430E8F54F77206816B30000F6CF502750
:100C20004F7D206206B2102F000000C006B30026E0
:100C30005029102713FB26F906B2E2CF4F7B06B3EB
:100C4000206400C0DACF01265029187106B269F17C
:100C50004E7F2160012F16B328C0002650294D7FFA
:100C600006B22260102F29C0012650294B7F06B200
:100C70002460012F2DC016B301265029477F28601C
:100C8000000006B22EC04F7E06B3206130C042275E
:100C900006B3499300265029102706B24FEF13FBE5
:100CA00020F9297F16B379F2187159F101265029DC
:100CB00006B2012703FB21F9237F06B371F2002658
:100CC00050293150D0F006B2102713FB22F9277EAD
:100CD00016B351F201265029012703FB06B223F96E
:100CE0002F7C49F2000006B3102713FB24F90026DD
:100CF000502906B22F7939F270CF10E21ABF0027BF
:100D00001CC03B503195C31BD04010E21ABF088174
:100D1000033C21F10B3411F1209152011981110F83
:100D20001213EDCF4A81441F093669F10D3211F0DB
:100D3000013E29F74F7009F0042F009357013F91AE
:100D40005F914F911F910F912F91DF910F90CAB733
:100D5000C5FD18CFCF91CFBFCF91189520915701E6
:100D6000222369F3109155011123D1F53430D2F1CA
:100D70003093550120935301109154013BE0311BF6
:100D8000309354012FC00091550101304CF50AE514
:100D90004F7049F43091610034FD25C0009361002B
:100DA000CBE3D1E024C0433049F03091460134FD1B
:100DB0001AC000934601C7E4D1E019C030916E011A
:100DC00034FD11C000936E01CFE6D1E010C00527BD
:100DD00010E000C021C0052710E0C89508BB14C072
:100DE0003AE501C032ED032EC0E0D0E032E017B3A7
:100DF0001861C39A08B317BB58E120E84FEF20FFF2
:100E0000052708BB279517951C3F28F7000045527A
:100E1000B0F720FF0527279508BB17951C3FB8F6AC
:100E200029913A9561F7077E10915601110F08BB81
:100E3000C250D04011F01093520110E21ABF086066
:100E400017B3177E402F477E54E05A95F1F708BB41
:100E500017BB48BB74CFE1E1F1E01382128280E757
:100E600090E0918380830895CF93DF93CDB7DEB771
:100E7000EA970FB6F894DEBF0FBECDBF789480B767
:100E8000806880BF80B7806480BF8CB580648CBD73
:100E90001FEF1DBD80B7807F876080BF89B78460EA
:100EA00089BF83B7887F83BF8AB58C7F81608ABD05
:100EB00083B7877F83BF83B7887F836083BF86B113
:100EC000876086B9379AF89488B3877E88BBBB9AC7
:100ED00027EA36E94CE0215030404040E1F700C0BD
:100EE0000000BB98AC9A8BB780628BBF8BE4809379
:100EF000470180936F018AE58093460180936E01DC
:100F000082EA90E09093F1008093F0009093F300D8
:100F10008093F2009093F5008093F40082EC90E0CF
:100F20009093F7008093F60020E230E03093F900D0
:100F30002093F8001092FB001092FA0082E890E0F3
:100F40009093D4008093D3009093D6008093D500E3
:100F50009093D8008093D70082EA90E09093DA00D3
:100F60008093D9003093DC002093DB001092DE00E8
:100F70001092DD001092E5001092E6001093DF0061
:100F8000789444EF51E060E070E081E191E0FADCB8
:100F900086E780931501C09AC29ABA9AB89A1FB987
:100FA0008AE28DB980EF8EB9809115011092FD0013
:100FB000880F8093FE0080ED9DD83CDC61E080913D
:100FC000150123DCA8D8883509F054C088E844DC32
:100FD00090931B0180931A018AE83EDC90931D01D7
:100FE00080931C018CE838DC90931F0180931E01D4
:100FF0008EE832DC909321018093200180E92CDC83
:10100000909323018093220182E926DC90932501AD
:101010008093240184E920DC9093270180932601AA
:1010200086E91ADC909329018093280188E914DC71
:1010300090932B0180932A018AE90EDC90932D0175
:1010400080932C018CE908DC90932F0180932E0172
:101050008EE902DC9093310180933001809115017B
:101060001092FD00880F8093FE0084EF43D88FE339
:1010700041D8E0DB2FB7F8948091CF009091D00059
:10108000A091D100B091D2002FBF4091C6005091E5
:10109000C7006091C8007091C900481759076A07D6
:1010A0007B0708F03CC22FB7F8948091CF00909155
:1010B000D000A091D100B091D2002FBF86509F4F99
:1010C000AF4FBF4F8093C6009093C700A093C80056
:1010D000B093C9008AEFD9DB00911A0110911B016E
:1010E00030E020E0C72ED82EE92EFF24E7FCFA944A
:1010F000C01AD10AE20AF30AB7E095958795779569
:101100006795BA95D1F7000F111F221F331F601B7F
:10111000710B820B930B20911C0130911D01032E4A
:10112000000C440B550B41D24B015C015BE0B594C4
:10113000A794979487945A95D1F7A7019601C70170
:10114000B60133D2ECE09595879577956795EA954A
:10115000D1F720911E0130911F01032E000C440B8A
:10116000550B23D2FEE09595879577956795FA956F
:10117000D1F7860E971EA81EB91E80921601909276
:101180001701A0921801B092190187EF7EDB6FABB7
:1011900078AF89AF9AAF8091160190911701A09115
:1011A0001801B09119016C017D01FF0CCC08DC2CF9
:1011B00076019C01AD016C2D7C2D8C2D9C2D345F16
:1011C0004140510961097109810991092AA33BA391
:1011D0004CA35DA36EA37FA388A799A759016A01B9
:1011E0007B018C01FBD12AA73BA74CA75AAB6BAB69
:1011F0007CAB8DAB9EAB3091230120912201932FCC
:10120000990F990B492F592F692F792F892FE6D1E3
:101210000CE099D219012A013B014C0130912501C2
:1012200020912401932F990F990BAAA4BBA4CCA4BD
:10123000DAA8EBA8FCA80DA91EA9492F592F692FE0
:10124000792F892FCBD108E097D251016201730128
:101250008401AFD270588F4F9F4F20902001309063
:1012600021015101C12CD12CE12CF12C00E010E026
:10127000B5D101E281D22DA73EA74FA758AB69ABEC
:10128000272E382E492EA0E0A6D209F450C1309165
:101290002B0120912A01932F990F990BAAA4BBA48B
:1012A000CCA4DAA8EBA8FCA80DA91EA9492F592F98
:1012B000692F792F892F92D12AA73BA74CA7552EAA
:1012C0003B014C013091290120912801932F990F66
:1012D000990BAAA0BBA0CCA0DDA0EEA0FFA008A502
:1012E00019A5492F592F692F792F892F77D101E11E
:1012F0002AD2AAA4BBA4CCA4D52C7301840159D2B0
:1013000059016A017B01582E192F8FA998ADA9ADFB
:10131000BAAD24E0B595A795979587952A95D1F70D
:1013200020E030E040E150E0281B390B4A0B5B0B1A
:10133000DA01C90139014A01990C6608762C43018A
:101340009C01AD01662D762D862D962D0FE1FBD1EA
:1013500039014A01B62FA72FF82FE92F3091270125
:1013600020912601932F990F990B492F592F692FFF
:10137000792F892F03E2E7D1052D1BD259016A018C
:101380007B018C019301A4016B2F7A2F8F2F9E2F4D
:1013900019D2E5E3AE2EFCE0BF2EC12CD12CE12CFE
:1013A000F12C00E010E01AD1ADA4BEA4CFA4D8A8BF
:1013B000E9A8F22C032D142D41D12AA33BA34CA361
:1013C0005DA36EA37FA388A799A70DE0D5D1922E28
:1013D000832E742E652E562E472E382E292E3091B0
:1013E000310120913001932F990F990BA92CB82C22
:1013F000C72CD62CE52CF42C032D122D492F592F58
:10140000692F792F892FEAD0E9D009E1B5D1AAA0B7
:10141000BBA0CCA0DDA0EEA0FFA008A519A5C9D156
:1014200019012A013B014C0130912F0120912E011D
:10143000932F990F990B492F592F692F792F892FA6
:10144000CDD003E199D159016A017B018C01910151
:10145000A201B301C401ADD108E08ED159016A01E6
:101460007B01E82F192F30912D0120912C01932F12
:10147000990F990B492F592F692F792F892F04E044
:1014800062D10E2F96D108E077D1722F632F942F5F
:10149000852F9B013093C2002093C3009093C4001A
:1014A0008093C50044E050E06CE770E081E191E09A
:1014B0003CD68091C2009091C300A091C400B0912D
:1014C000C50019A2FE01B196AC01BD0194E076956C
:1014D0006795579547959A95D1F7242F2295207FA8
:1014E000821B8A304CF5805D8293DB01CA01009734
:1014F000A105B10549F7DF010D900020E9F711972B
:10150000AD014E1B5F0BBF0181E191E00ED66DE096
:1015100081E191E076DA6AE081E191E072DA4AE015
:1015200050E060E070E081E191E02CDAA3CD30E0A2
:1015300020E090E080E0AECF895CD6CF2F923F9242
:101540004F925F926F927F928F929F92AF92BF92D3
:10155000CF92DF92EF92FF920F931F93CF93DF937F
:10156000CDB7DEB7CA1BDB0B0FB6F894DEBF0FBEDC
:10157000CDBF09942A88398848885F846E847D8429
:101580008C849B84AA84B984C884DF80EE80FD802B
:101590000C811B81AA81B981CE0FD11D0FB6F894A1
:1015A000DEBF0FBECDBFED010895EE27FF27AA27AE
:1015B000BB2708C0A20FB31FE41FF51F220F331F64
:1015C000441F551F969587957795679598F37040BA
:1015D000A9F7009799F7BD01CF010895DF93CF9345
:1015E0009F92A0E49A2E0024D001E001F00116950C
:1015F0000795F794E794D794C794B794A79448F4C1
:101600001068A20FB31FC41FD51FE61FF71F081EC7
:10161000191E220F331F441F551F661F771F881F77
:10162000991F9A9421F79D01AE01BF01C0011124B9
:101630009F90CF91DF910895689401C0E894F92FAD
:10164000F12B0AF027C0A0E0B0E0E8E2FBE07CCF9D
:10165000092E05941AF467D0112392F4F0E80F26AE
:10166000FFEFE094F09400951095B094C094D0945E
:10167000A194BF0ACF0ADF0AEF0AFF0A0F0B1F0B64
:1016800013D007FC50D0CDB7DEB7ECE079CF68942B
:1016900001C0E8948F929F92CF93DF9305D0DF91A2
:1016A000CF919F908F90089588249924F401E401AC
:1016B000B0E41B2ED4019D158E049F04E007F107B2
:1016C00038F4FC014B01CA01B901AD019E01169429
:1016D000220F331F441F551F661F771F881F991F36
:1016E000881C991CEE1FFF1FCC1FDD1FAA1FBB1FEC
:1016F0008A149B04EC05FD05CE05DF05A007B107A4
:1017000048F08A189B08EC09FD09CE09DF09A00BF7
:10171000B10B21601A94E1F62EF49401AF01BE01E1
:10172000CD01000C08956095709580959095309549
:101730004095509521953F4F4F4F5F4F6F4F7F4FD3
:101740008F4F9F4F0895002E083090F0982F872FCD
:10175000762F652F542F432F322F22270850F4CF96
:10176000220F331F441F551F661F771F881F991FA5
:101770000A95B2F7002D089597FD1094002E0830B9
:1017800098F00850232F342F452F562F672F782F8E
:10179000892F912DF4CF1594979587957795679517
:1017A00057954795379527950A95AAF71124002D47
:1017B00008952A0D3B1D4C1D5D1D6E1D7F1D801F54
:1017C000911F08952A193B094C095D096E097F098B
:1017D000800B910B08950024A7FD00942A17300573
:1017E0004005500560057005800590050895EE0FD1
:0E17F000FF1F0590F491E02D0994F894FFCFAF
:1017FE00FF5AA120000000000200030000000000BC
:10180E0001059500B3047204BD00D0005052532060
:02181E000000C8
:00000001FF
